S00F000033484230355F322E7372656362
S11300000C942A000C943F000C943F000C943F0085
S11300100C943F000C943F000C943F000C943F0060
S11300200C943F000C943F000C943F000C943F0050
S11300300C943F000C943F000C943F000C943F0040
S11300400C943F000C943F000C943F000C943F0030
S11300500C943F0011241FBECFE5D8E0DEBFCDBF16
S113006010E0A0E6B0E0E0E0F2E002C005900D92FE
S1130070AA36B107D9F70E9450000C94FE000C94E4
S1130080000082E082BB8FEF88BB85BB2FEF83ED3E
S113009090E3215080409040E1F700C000000895B3
S11300A0CF93DF93CDB7DEB72A970FB6F894DEBFB0
S11300B00FBECDBF8FEF87BB84BB8EEF81BB8AE0C1
S11300C0E0E6F0E0DE01119601900D928A95E1F7E9
S11300D00E94410018BA15BA12BA8099FECF30E0D6
S11300E021E0CC24C39460E004E05CE511E7CE0198
S11300F001960F2EF6E0DF2EF02D0F2EF4E5EF2EF5
S1130100F02D6894FF24F1F8EFE3FCE93197F1F75F
S113011000C00000809904C04C2D3111462F342FAB
S1130120EFE3FCE93197F1F700C000003323D1F08D
S1130130D2BA58BBE5BAFFEF23ED40E3F1502040BB
S11301404040E1F700C00000F2BA18BA15BA7FEFD8
S1130150E3EDF0E37150E040F040E1F700C000004F
S11301602C2DD2CF222381F12B8128BB298125BBC1
S11301702FEF43ED70E3215040407040E1F700C0A1
S11301800000FE013B96DF012A8128BB2E9125BB8E
S11301902FEF43ED70E3215040407040E1F700C081
S11301A000008A179B0781F7298128BB229125BB70
S11301B02FEF43ED70E3215040407040E1F700C061
S11301C000008E179F0781F702BB58BB15BBEFEFEA
S11301D0F3ED20E3E150F0402040E1F700C00000DF
S11301E012BA18BA15BA4FEF73EDE0E341507040FC
S11301F0E040E1F700C00000262F86CFF894FFCF3F
S10D02003F065B4F666D7D077F6FBC
S9030000FC
